:100000000C942A000C945A000C945A000C945A0038
:100010000C945A000C945A000C945A000C945A00F8
:100020000C945A000C945A000C945A000C945A00E8
:100030000C945A000C945A000C945A000C945A00D8
:100040000C945A000C945A000C945A000C945A00C8
:100050000C945A0011241FBECFE5D8E0DEBFCDBFFF
:0C0060000E9436000C943400F894FFCF8E
:10006C00D09ACF9B05C080E090E00E944F00F9CF62
:0A007C0080E090E00E944300F4CF02
:100086009BB321E030E002C0220F331F8A95E2F7CE
:08009600209529232BBB0895DE
:10009E009BB321E030E002C0220F331F8A95E2F7B6
:0600AE00292B2BBB089575
:0400B4000C940000A8
:00000001FF
